S01D0000736576656E207365676D656E7420696E74727570742E737265639D
S11300000C9434000C9456000C9446000C94460056
S11300100C9446000C9446000C9446000C94460044
S11300200C9446000C9446000C9446000C94460034
S11300300C9446000C9446000C9446000C94460024
S11300400C9446000C9446000C9446000C94460014
S11300500C944600B100BD00CA00D700E400F100D2
S1130060FE000B011801250111241FBECFE5D8E0C5
S1130070DEBFCDBF20E0A0E6B0E001C01D92A136F6
S1130080B207E1F70E9434010C9448010C9400007B
S113009095B384E0892785BB2FEF83ED90E321504E
S11300A080409040E1F700C0000008951F920F9235
S11300B00FB60F9211242F933F934F935F936F9337
S11300C07F938F939F93AF93BF93EF93FF930E947C
S11300D04800809160008F5F809360002AEA36EECA
S11300E086E991E02150304080409040D9F70000EB
S11300F080916000893061F4109260002AEA36EE43
S113010086E991E02150304080409040D9F70000CA
S1130110FF91EF91BF91AF919F918F917F916F91DB
S11301205F914F913F912F910F900FBE0F901F90B1
S11301301895C19AC29A2FEF33ED80E321503040D5
S11301408040E1F700C00000E09160008E2F90E055
S11301508A30910508F086C0FC01E65DFF4F0C94DF
S113016042011BBA9AEA26EE36E981E0915020401A
S113017030408040D9F70000089580E18BBB9AEAB3
S113018026EE36E981E09150204030408040D9F796
S11301900000089580E28BBB9AEA26EE36E981E0FE
S11301A09150204030408040D9F70000089580E30A
S11301B08BBB9AEA26EE36E981E09150204030402C
S11301C08040D9F70000089580E48BBB9AEA26EEBC
S11301D036E981E09150204030408040D9F700005A
S11301E0089580E58BBB9AEA26EE36E981E09150CA
S11301F0204030408040D9F70000089580E68BBB52
S11302009AEA26EE36E981E0915020403040804061
S1130210D9F70000089580E78BBB9AEA26EE36E909
S113022081E09150204030408040D9F7000008958B
S113023080E88BBB9AEA26EE36E981E091502040B3
S113024030408040D9F70000089580E98BBB9AEADA
S113025026EE36E981E09150204030408040D9F7C5
S11302600000089518BA0895A19A8BB780648BBFD3
S113027085B78E7F85BF85B7826085BF78940E94DD
S11302809900FDCFEE0FFF1F0590F491E02D099426
S1070290F894FFCF0C
S9030000FC
